S0130000456E636F64657254525F322E737265631A
S11300000C94AE000C94CB000C94CB000C94CB005D
S11300100C94CB000C94CB000C94CB000C94C00536
S11300200C94CB000C94CB000C94CB000C94CB0020
S11300300C94CB000C94EF010C94CB000C94CB00EB
S11300400C943C040C94CB000C94CB000C94CB008B
S11300500C94CB000C94CB000C94CB000C94CB00F0
S11300600C94CB000C94CB005403A2035603580306
S11300705A035C035E03600362036403660368035C
S11300806A036E0370037403A003A003A003A00318
S1130090A003A003A003A003A003A003A003A00344
S11300A0A003A003A003A003A003A0039A03A0033A
S11300B0A003A003A0039C03A003A003A003A00328
S11300C0A0039803A003A0035403A20356035803F8
S11300D05A035C035E03600362036403A003A0038A
S11300E0A003A003A003A003A003660368036A039C
S11300F06E037003740376037803A2037C03A003E6
S11301007E03800382035403860388038A035C030B
S11301108C038E0392039403A0039603A003A0030D
S1130120A003A003A0039E03A003660368036C035B
S11301306E037203740364037A03A2037C03A003B3
S1130140A203800382038403860388038A035C0377
S11301508C03900392039403A003960311241FBEFF
S1130160CFEFD8E0DEBFCDBF11E0A0E0B1E0EAE818
S1130170FCE002C005900D92AC30B107D9F722E043
S1130180ACE0B1E001C01D92AC3BB207E1F70E94C4
S1130190C8040C9443060C940000539A549A5B9A36
S11301A05C9A8DE08A95F1F700005C985B988DE08D
S11301B08A95F1F700000895539A549A5B985C98D5
S11301C08DE08A95F1F700005B9A5C9A8DE08A9540
S11301D0F1F70000089520E030E090E05B984DE0F6
S11301E04A95F1F70000AC01022E02C055954795DF
S11301F00A94E2F740FF02C05C9A01C05C984DE0AB
S11302004A95F1F700005B9A4DE04A95F1F700003A
S11302102F5F3F4F2830310509F75B988DE08A95B1
S1130220F1F700005B9A4DE04A95F1F7000008955C
S11302300F931F93CF93DF93082F162FD42FC22F22
S11302400E94CD008DE80E94EB000E94CD0080E466
S11302500E94EB000E94DC000E94CD0080EC0E9412
S1130260EB00802F0E94EB00812F0E94EB008D2F6A
S11302700E94EB008C2F0E94EB000E94DC00DF91B7
S1130280CF911F910F910895DF92EF92FF920F93F8
S11302901F93CF93DF93AC01D62E9C01ADECBCEC45
S11302A00E942906969587959695879596958795A4
S11302B09C01220F331F880F991F880F991F880FE5
S11302C0991F820F931FFA01E81BF90BFF279A016C
S11302D03695279536952795ABE7B4E10E94290614
S11302E09695879564E6689F9001699F300D112467
S11302F0CA01821B930B9C012E1B3F0BADECBCEC83
S11303000E94290696958795969587959695879543
S1130310EC01DD27DF01A050BF4F7D018E010050AD
S11303201F4F9A013695279536952795369527952B
S1130330A5ECB0E20E942906929582958F708927D8
S11303409F70892768EE73E0869F9001879F300D28
S1130350969F300D1124421B530B4C1B5D0B4E1BFF
S11303605F0B9A013695279536952795ABE7B4E14F
S11303700E94290696958795FC01FF27E050FF4FC0
S11303802D2DD7014C91D8016C9180810E941801C8
S1130390DF91CF911F910F91FF90EF90DF9008951F
S11303A010921D0181E08093B002089580648093CF
S11303B07C008AE18A95F1F700C0EAE7F0E08081E9
S11303C080648083808184FFFDCFEAE7F0E0808150
S11303D080618083809178009091790008951F92C4
S11303E00F920FB60F9211240F931F932F933F93E5
S11303F04F935F936F937F938F939F93AF93BF9329
S1130400CF93DF93EF93FF93E4E8F0E08081918151
S11304109854918380838091B0028823B1F0CDE118
S1130420D1E0088110E080E00E94D601F801EE0FCF
S1130430FF1FE35EFE4F9283818388818F5F8883F1
S11304408881883C10F01092B002FF91EF91DF9107
S1130450CF91BF91AF919F918F917F916F915F9158
S11304604F913F912F911F910F910F900FBE0F90BD
S11304701F90189580E480937C0083E880937A0031
S113048008958F929F92AF92BF92CF92DF92EF9294
S1130490FF920F931F93611571058105910509F46E
S11304A065C08B019C01002711272227012B022BF9
S11304B0032B09F05FC0982F872F762F66274CE017
S11304C041508B019C01002737FD039511272227FA
S11304D03327000F111F221F331F96FD0160660F83
S11304E0771F881F991F660F771F881F991F011593
S11304F011052105310511F44111E2CF0150110913
S113050021093109C12CD12C7601C3942CC0000FD0
S1130510111F221F331F000F111F221F331FCC0C6A
S1130520DD1CEE1CFF1C99230CF4026096FD016097
S1130530660F771F881F991F660F771F881F991FE3
S113054046015701880C991CAA1CBB1C689480F8AE
S1130550081519052A053B0530F0081919092A0957
S11305603B096894C0F8415090F606C0C12CD12CC8
S1130570760102C040E1A4CFC6011F910F91FF9004
S1130580EF90DF90CF90BF90AF909F908F900895A1
S1130590CF92DF92EF92FF9240E050E0C12CD12C39
S11305A07601FA01EE0FFF1FE35EFE4FA181B281D7
S11305B0218132810E942906C60ED71EE81EF91E2B
S11305C04F5F5F4F483C510561F7C701B60128EC06
S11305D030E040E050E00E940106CA01B9010E94E7
S11305E04102FF90EF90DF90CF9008958BB18A6025
S11305F08BB90895F8948091B1021092B102789465
S11306000895499943C04B9B02C092E003C098E00F
S113061001C098E090930F0180910E01823020F484
S11306208F5F80930E01089581E080930D01809186
S11306300C018E3170F58F5F80930C018E3148F17F
S11306402091B10230E1939FC0011124822B809349
S1130650B102089580910E01882321F08150809386
S11306600E01089580910D01882399F010920D01D7
S113067080910C018E3138F49091B10280910F0178
S1130680892B8093B10210920C0108954B9BC1CF2A
S1130690E1CF089590E08A37910508F051C0FC013C
S11306A0EC5CFF4F0C9423068FE308958BE50895CB
S11306B08FE4089586E608958DE608958DE70895FC
S11306C087E008958FE708958FE6089587E70895F2
S11306D08CE7089589E3089588E508958EE50895E3
S11306E089E708958BE7089581E708958DE30895D8
S11306F086E7089584E708958EE1089588E30895D0
S113070085E5089584E508958CE5089583E70895C3
S113071087E6089580E5089588E708958EE30895AF
S11307208CE108958CE108958DE108958EE6089595
S113073080E4089582E2089582E0089588E00895AF
S113074080E0089586E0089541984298439844983B
S1130750289A299A2A9A2B9A2C9A2D9A2E9A2F9A69
S11307600895CF93DF93D82FC62F0E94A403C230DD
S113077059F018F4C13031F00CC0C33039F0C43032
S113078039F007C0419A05C0429A03C0439A01C098
S1130790449A2D2F30E0F901EE54FD4F80818823D7
S11307A02CF4F901EA54FD4F808102C00E944A03EF
S11307B02091110130E0B90102C075956795CA9581
S11307C0E2F760FD8068882314F42F9801C02F9A03
S11307D086FF02C02E9801C02E9A85FF02C02D9874
S11307E001C02D9A84FF02C02C9801C02C9A83FF6B
S11307F002C02B9801C02B9A82FF02C02A9801C024
S11308002A9A81FF02C0299801C0299A80FF02C058
S1130810289801C0289ADF91CF9108958091100102
S1130820811104C061E00E94B10316C0813021F43B
S113083062E00E94B10310C0823021F463E00E94A0
S1130840B1030AC0833021F464E00E94B10304C000
S1130850843011F40E94A403209110012F5F20938F
S1130860100130E080910A0190910B01281739079B
S113087011F41092100108951F920F920FB60F9267
S113088011242F933F934F935F936F937F938F9391
S11308909F93AF93BF93EF93FF930E940E0485EF52
S11308A086BDFF91EF91BF91AF919F918F917F9101
S11308B06F915F914F913F912F910F900FBE0F90C9
S11308C01F9018958AB18A7F8AB98BB185608BB9DC
S11308D010921A0110921901089580911B019091B0
S11308E01C018A3F910548F42091BB02211105C0E7
S11308F00A9690931C0180931B0180911B01909197
S11309001C018F3F910548F42091BB02213029F44A
S1130910019690931C0180931B01089580911B0103
S113092090911C010097A1F02091BB02211107C0F6
S11309300A9790931C0180931B01009749F0209122
S1130940BB02213029F4019790931C0180931B0171
S11309500895CF93DF93C9B1C095C1704A9BC2601B
S1130960D0911A01CD1789F0D33059F4809119012F
S1130970C81739F0C23019F40E946D0402C00E94F5
S11309808E04D0931901C0931A01DF91CF91089579
S11309908FEF84B915B88AB1806A8AB98EE48093DE
S11309A0B300E0E7F0E080818260808387E0809399
S11309B0B10082E08093B0000E94E4050E946204CA
S11309C00E943A020E94D0010E94F602109217017E
S11309D0109216017894C0EBD2E00F2EFEEACF2ECF
S11309E0F2E0DF2EF02D0F2EF8EE8F2EF3E09F2E87
S11309F0A12CB12CF02D0F2EFFE64F2E512CF02DF3
S1130A000F2EFBE1EF2EF1E0FF2EF02D77247394EF
S1130A10888181113DC00E94C802F60191838083C0
S1130A20A081B18128E93EEF49E050E00E943806F8
S1130A30DC01CB019E5FAF4FBF4F072E7AE0B69526
S1130A40A795979587957A95D1F7702DBC01CD011F
S1130A506C507E4F8F4F9F4F609312017093130120
S1130A608093140190931501A50194010E9401063D
S1130A70309317012093160162E6C9010E944401D4
S1130A808FE19EE40197F1F700C000000E94D001BD
S1130A900E94FA02182F823051F48091180191E0DB
S1130AA0980F90931801823010F070921801809181
S1130AB01801813019F08230F1F032C05D9A5F9AEA
S1130AC0F20180818E7F80831092BB020E94A90470
S1130AD0F70180818093BA028091BA028091BA02B0
S1130AE063EF90E00E9444018FE19EE40197F1F7E7
S1130AF000C0000015C05D987092BB020E94A9045A
S1130B00F70180818093BA028091BA0263EF90E08A
S1130B100E9444018FE19EE40197F1F700C00000B8
S1130B20103209F075CF5D981092BB028091BA0221
S1130B3060E690E00E9444018091BA0285B99FEF7B
S1130B40EDE3F9E49150E040F040E1F700C000002B
S1130B505F98F20180818160808362E68091160152
S1130B60909117010E94440110921801FFEF20E7B1
S1130B7082E0F15020408040E1F700C0000048CFFF
S1130B801F920F920FB60F9211242F933F934F93FE
S1130B905F936F937F938F939F93AF93BF93EF93E1
S1130BA0FF930E940103FF91EF91BF91AF919F9139
S1130BB08F917F916F915F914F913F912F910F9002
S1130BC00FBE0F901F9018951092800081E08093C3
S1130BD0810080EE9CEF90938500809384001092B6
S1130BE0870010928600109289001092880010925B
S1130BF08B0010928A00EFE6F0E0808181608083B0
S1130C000895A1E21A2EAA1BBB1BFD010DC0AA1F49
S1130C10BB1FEE1FFF1FA217B307E407F50720F061
S1130C20A21BB30BE40BF50B661F771F881F991FDC
S1130C301A9469F760957095809590959B01AC0125
S1130C40BD01CF010895EE0FFF1F0590F491E02D33
S1130C500994A29FB001B39FC001A39F700D811D91
S1130C601124911DB29F700D811D1124911D0895B1
S1130C700E942906A59F900DB49F900DA49F800DFE
S10D0C80911D11240895F894FFCF8C
S10F0C8A3F065B4F666D7D077F6F5000D6
S903019A61
