:1000000014C02CC02BC02AC029C062C027C026C083
:1000100025C024C023C022C021C020C01FC01EC0D4
:100020001DC01CC01BC01AC019C011241FBECFEDBB
:10003000CDBF10E0A0E6B0E0EEE3F3E002C0059033
:100040000D92A236B107D9F720E0A2E6B0E001C0D8
:100050001D92A33DB207E1F714D16FC1D1CF9B012F
:10006000220F331F620F731FBA9A38B33B7F48B316
:100070004460AFB7F8946115710509F421C0FC0123
:10008000860F971F219158E048BB27FF38BB220FEE
:10009000000000C038BB000000C000C000C000C0AD
:1000A00000C000C000C000C000C000C000C000C050
:1000B00000C000C000C05A9539F7E817F90711F7DA
:1000C000AFBF87E592E00197F1F700C00000089507
:1000D0001F920F920FB60F9211242F938F939F931D
:1000E00080916300909164000196909364008093E6
:1000F000630080916300909164008031974269F4BD
:100100008091D1009091D20001969093D20080937B
:10011000D10010926400109263008CB59DB5805A96
:100120009F409DBD8CBD80916000815019F08093EF
:1001300060002CC084E18093600096B380916100E0
:1001400090FB80F9809361008091610080FD09C07F
:100150008091610081FF05C080916100846080937F
:1001600061008091610080FF09C08091610081FD84
:1001700005C080916100886080936100909161006A
:100180008091610090FB81F9809361009F918F9134
:100190002F910F900FBE0F901F90189581E08EBD8C
:1001A00089B7806889BF1DBC1CBC0895C198B99AE5
:1001B000C398BB9AC498BC9AB898C09AC49808953A
:1001C000E7E6F0E083ED90E02FEFDF0111972C934D
:1001D00011971C9220833396E817F907B1F7089519
:1001E000E7E6F0E083ED90E02FEFDF0111971C923E
:1001F00011971C9220833396E817F907B1F70895F9
:10020000E7E6F0E083ED90E02FEFDF0111972C930C
:1002100011972C9320833396E817F907B1F70895C7
:1002200083ED90E0E7E6F0E02FEFDF0111972C93EC
:1002300011971C9220833396E817F907B1F7E7E688
:10024000F0E02FEFDF0111971C9211971C92208391
:100250003696E817F907B1F70895E7E6F0E083ED81
:1002600090E0DF0111971C9211971C921082339637
:10027000E817F907B1F764E270E085E690E0EFDE99
:1002800008958CDF93DF81E0809362007894809101
:10029000610082FF0AC0809161008B7F80936100C2
:1002A000809162008F5F8093620080916200813054
:1002B00019F4D3DFC19AC39880916200823039F477
:1002C000AFDFC198C39A10926400109263008091CE
:1002D0006200833029F494DF10926400109263006E
:1002E00080916200843029F47BDF109264001092C8
:1002F000630080916200853039F41092620060DF03
:1003000010926400109263008091D1009091D2000D
:100310008C3D954061F41092D2001092D100109261
:1003200064001092630099DFC19A1092620064E247
:0E03300070E085E690E093DEAACFF894FFCF50
:02033E001402A7
:00000001FF
